{
  "contractName": "ArriendoFactory",
  "abi": [
    {
      "constant": true,
      "inputs": [],
      "name": "owner",
      "outputs": [
        {
          "name": "",
          "type": "address"
        }
      ],
      "payable": false,
      "stateMutability": "view",
      "type": "function"
    },
    {
      "constant": false,
      "inputs": [
        {
          "name": "newOwner",
          "type": "address"
        }
      ],
      "name": "transferOwnership",
      "outputs": [],
      "payable": false,
      "stateMutability": "nonpayable",
      "type": "function"
    },
    {
      "inputs": [],
      "payable": false,
      "stateMutability": "nonpayable",
      "type": "constructor"
    },
    {
      "anonymous": false,
      "inputs": [
        {
          "indexed": false,
          "name": "_dirPropietario",
          "type": "address"
        },
        {
          "indexed": false,
          "name": "_nombrePropietario",
          "type": "string"
        }
      ],
      "name": "NewPropietario",
      "type": "event"
    },
    {
      "anonymous": false,
      "inputs": [
        {
          "indexed": false,
          "name": "_dirArrendador",
          "type": "address"
        },
        {
          "indexed": false,
          "name": "_nombreArrendador",
          "type": "string"
        }
      ],
      "name": "NewArrendador",
      "type": "event"
    },
    {
      "anonymous": false,
      "inputs": [
        {
          "indexed": false,
          "name": "_dirPropietario",
          "type": "address"
        },
        {
          "indexed": false,
          "name": "_dirInmueble",
          "type": "address"
        },
        {
          "indexed": false,
          "name": "_descDireccion",
          "type": "string"
        },
        {
          "indexed": false,
          "name": "_descDescripcion",
          "type": "string"
        },
        {
          "indexed": false,
          "name": "_descEstado",
          "type": "string"
        }
      ],
      "name": "NewInmueble",
      "type": "event"
    },
    {
      "anonymous": false,
      "inputs": [
        {
          "indexed": false,
          "name": "_dirPropietario",
          "type": "address"
        },
        {
          "indexed": false,
          "name": "_dirArrendador",
          "type": "address"
        },
        {
          "indexed": false,
          "name": "_dirInmueble",
          "type": "address"
        },
        {
          "indexed": false,
          "name": "_tiempoArriendo",
          "type": "uint32"
        },
        {
          "indexed": false,
          "name": "_costoArriendo",
          "type": "uint256"
        },
        {
          "indexed": false,
          "name": "_mtoPagado",
          "type": "uint256"
        },
        {
          "indexed": false,
          "name": "_descEstado",
          "type": "uint32"
        }
      ],
      "name": "NewArriendo",
      "type": "event"
    },
    {
      "anonymous": false,
      "inputs": [
        {
          "indexed": true,
          "name": "previousOwner",
          "type": "address"
        },
        {
          "indexed": true,
          "name": "newOwner",
          "type": "address"
        }
      ],
      "name": "OwnershipTransferred",
      "type": "event"
    },
    {
      "constant": false,
      "inputs": [],
      "name": "getOwnerContrato",
      "outputs": [
        {
          "name": "",
          "type": "address"
        }
      ],
      "payable": false,
      "stateMutability": "nonpayable",
      "type": "function"
    },
    {
      "constant": false,
      "inputs": [
        {
          "name": "_nombrePropietario",
          "type": "string"
        }
      ],
      "name": "setPropietario",
      "outputs": [],
      "payable": false,
      "stateMutability": "nonpayable",
      "type": "function"
    },
    {
      "constant": false,
      "inputs": [
        {
          "name": "_dirPropietario",
          "type": "address"
        }
      ],
      "name": "getPropietario",
      "outputs": [
        {
          "name": "nombrePropietario",
          "type": "string"
        }
      ],
      "payable": false,
      "stateMutability": "nonpayable",
      "type": "function"
    },
    {
      "constant": false,
      "inputs": [
        {
          "name": "_nombreArrendador",
          "type": "string"
        }
      ],
      "name": "setArrendador",
      "outputs": [],
      "payable": false,
      "stateMutability": "nonpayable",
      "type": "function"
    },
    {
      "constant": false,
      "inputs": [
        {
          "name": "_dirArrendador",
          "type": "address"
        }
      ],
      "name": "getArrendador",
      "outputs": [
        {
          "name": "_nombreArrendador",
          "type": "string"
        }
      ],
      "payable": false,
      "stateMutability": "nonpayable",
      "type": "function"
    },
    {
      "constant": false,
      "inputs": [
        {
          "name": "_dirInmueble",
          "type": "address"
        },
        {
          "name": "_descTipo",
          "type": "string"
        },
        {
          "name": "_descDireccion",
          "type": "string"
        },
        {
          "name": "_descDescripcion",
          "type": "string"
        },
        {
          "name": "_descEstado",
          "type": "string"
        }
      ],
      "name": "setInmueble",
      "outputs": [],
      "payable": false,
      "stateMutability": "nonpayable",
      "type": "function"
    },
    {
      "constant": false,
      "inputs": [
        {
          "name": "_dirInmueble",
          "type": "address"
        }
      ],
      "name": "getInmueble",
      "outputs": [
        {
          "name": "_descTipo",
          "type": "string"
        },
        {
          "name": "_descDireccion",
          "type": "string"
        },
        {
          "name": "_descDescripcion",
          "type": "string"
        },
        {
          "name": "_descEstado",
          "type": "string"
        }
      ],
      "payable": false,
      "stateMutability": "nonpayable",
      "type": "function"
    },
    {
      "constant": false,
      "inputs": [
        {
          "name": "hashArriendo",
          "type": "address"
        },
        {
          "name": "_dirPropietario",
          "type": "address"
        },
        {
          "name": "_dirInmueble",
          "type": "address"
        },
        {
          "name": "_tiempoArriendo",
          "type": "uint32"
        },
        {
          "name": "_costoArriendo",
          "type": "uint256"
        },
        {
          "name": "_descEstado",
          "type": "uint32"
        }
      ],
      "name": "_enviarDeposito_Contrato",
      "outputs": [],
      "payable": true,
      "stateMutability": "payable",
      "type": "function"
    },
    {
      "constant": false,
      "inputs": [
        {
          "name": "_hashArriendo",
          "type": "address"
        },
        {
          "name": "_descEstado",
          "type": "uint32"
        }
      ],
      "name": "_notificarEstadoArriendo",
      "outputs": [],
      "payable": false,
      "stateMutability": "nonpayable",
      "type": "function"
    },
    {
      "constant": false,
      "inputs": [
        {
          "name": "_hashArriendo",
          "type": "address"
        }
      ],
      "name": "_contratoEnviaDeposito",
      "outputs": [],
      "payable": true,
      "stateMutability": "payable",
      "type": "function"
    }
  ],
  "bytecode": "0x60806040526010600255600254600a0a6003556201518060045566071afd498d000060055534801561003057600080fd5b50336000806101000a81548173ffffffffffffffffffffffffffffffffffffffff021916908373ffffffffffffffffffffffffffffffffffffffff16021790555033600160006101000a81548173ffffffffffffffffffffffffffffffffffffffff021916908373ffffffffffffffffffffffffffffffffffffffff160217905550611d4e806100c16000396000f3006080604052600436106100ba576000357c0100000000000000000000000000000000000000000000000000000000900463ffffffff16806328f50161146100bf5780634cad8560146101285780636194f5f3146101c85780637af70904146101fe5780638da5cb5b146102515780639e890c7b146102a8578063a87e72f714610364578063b74099ef146103bb578063c42262c414610424578063f2581b7814610624578063f2fde38b146106e0578063f86f5f2f14610723575b600080fd5b3480156100cb57600080fd5b50610126600480360381019080803590602001908201803590602001908080601f016020809104026020016040519081016040528093929190818152602001838380828437820191505050505050919291929050505061087e565b005b6101c6600480360381019080803573ffffffffffffffffffffffffffffffffffffffff169060200190929190803573ffffffffffffffffffffffffffffffffffffffff169060200190929190803573ffffffffffffffffffffffffffffffffffffffff169060200190929190803563ffffffff16906020019092919080359060200190929190803563ffffffff1690602001909291905050506109ab565b005b6101fc600480360381019080803573ffffffffffffffffffffffffffffffffffffffff169060200190929190505050610df2565b005b34801561020a57600080fd5b5061024f600480360381019080803573ffffffffffffffffffffffffffffffffffffffff169060200190929190803563ffffffff169060200190929190505050610fc7565b005b34801561025d57600080fd5b50610266611101565b604051808273ffffffffffffffffffffffffffffffffffffffff1673ffffffffffffffffffffffffffffffffffffffff16815260200191505060405180910390f35b3480156102b457600080fd5b506102e9600480360381019080803573ffffffffffffffffffffffffffffffffffffffff169060200190929190505050611126565b6040518080602001828103825283818151815260200191508051906020019080838360005b8381101561032957808201518184015260208101905061030e565b50505050905090810190601f1680156103565780820380516001836020036101000a031916815260200191505b509250505060405180910390f35b34801561037057600080fd5b50610379611207565b604051808273ffffffffffffffffffffffffffffffffffffffff1673ffffffffffffffffffffffffffffffffffffffff16815260200191505060405180910390f35b3480156103c757600080fd5b50610422600480360381019080803590602001908201803590602001908080601f0160208091040260200160405190810160405280939291908181526020018383808284378201915050505050509192919290505050611231565b005b34801561043057600080fd5b50610465600480360381019080803573ffffffffffffffffffffffffffffffffffffffff16906020019092919050505061135e565b6040518080602001806020018060200180602001858103855289818151815260200191508051906020019080838360005b838110156104b1578082015181840152602081019050610496565b50505050905090810190601f1680156104de5780820380516001836020036101000a031916815260200191505b50858103845288818151815260200191508051906020019080838360005b838110156105175780820151818401526020810190506104fc565b50505050905090810190601f1680156105445780820380516001836020036101000a031916815260200191505b50858103835287818151815260200191508051906020019080838360005b8381101561057d578082015181840152602081019050610562565b50505050905090810190601f1680156105aa5780820380516001836020036101000a031916815260200191505b50858103825286818151815260200191508051906020019080838360005b838110156105e35780820151818401526020810190506105c8565b50505050905090810190601f1680156106105780820380516001836020036101000a031916815260200191505b509850505050505050505060405180910390f35b34801561063057600080fd5b50610665600480360381019080803573ffffffffffffffffffffffffffffffffffffffff169060200190929190505050611637565b6040518080602001828103825283818151815260200191508051906020019080838360005b838110156106a557808201518184015260208101905061068a565b50505050905090810190601f1680156106d25780820380516001836020036101000a031916815260200191505b509250505060405180910390f35b3480156106ec57600080fd5b50610721600480360381019080803573ffffffffffffffffffffffffffffffffffffffff169060200190929190505050611718565b005b34801561072f57600080fd5b5061087c600480360381019080803573ffffffffffffffffffffffffffffffffffffffff169060200190929190803590602001908201803590602001908080601f0160208091040260200160405190810160405280939291908181526020018383808284378201915050505050509192919290803590602001908201803590602001908080601f0160208091040260200160405190810160405280939291908181526020018383808284378201915050505050509192919290803590602001908201803590602001908080601f0160208091040260200160405190810160405280939291908181526020018383808284378201915050505050509192919290803590602001908201803590602001908080601f016020809104026020016040519081016040528093929190818152602001838380828437820191505050505050919291929050505061186d565b005b600033905081600b60008373ffffffffffffffffffffffffffffffffffffffff1673ffffffffffffffffffffffffffffffffffffffff16815260200190815260200160002090805190602001906108d6929190611bfd565b507f630241b0b9f2b66b6d4cbd33e2c3af4ad75b794a4ae7adf0b8704061e476d22b8183604051808373ffffffffffffffffffffffffffffffffffffffff1673ffffffffffffffffffffffffffffffffffffffff16815260200180602001828103825283818151815260200191508051906020019080838360005b8381101561096c578082015181840152602081019050610951565b50505050905090810190601f1680156109995780820380516001836020036101000a031916815260200191505b50935050505060405180910390a15050565b600080349150339050838210156109c157600080fd5b610100604051908101604052808873ffffffffffffffffffffffffffffffffffffffff1681526020018273ffffffffffffffffffffffffffffffffffffffff1681526020018773ffffffffffffffffffffffffffffffffffffffff1681526020014263ffffffff1681526020018663ffffffff1681526020018581526020018381526020018463ffffffff16815250600660008a73ffffffffffffffffffffffffffffffffffffffff1673ffffffffffffffffffffffffffffffffffffffff16815260200190815260200160002060008201518160000160006101000a81548173ffffffffffffffffffffffffffffffffffffffff021916908373ffffffffffffffffffffffffffffffffffffffff16021790555060208201518160010160006101000a81548173ffffffffffffffffffffffffffffffffffffffff021916908373ffffffffffffffffffffffffffffffffffffffff16021790555060408201518160020160006101000a81548173ffffffffffffffffffffffffffffffffffffffff021916908373ffffffffffffffffffffffffffffffffffffffff16021790555060608201518160020160146101000a81548163ffffffff021916908363ffffffff16021790555060808201518160020160186101000a81548163ffffffff021916908363ffffffff16021790555060a0820151816003015560c0820151816004015560e08201518160050160006101000a81548163ffffffff021916908363ffffffff160217905550905050600160009054906101000a900473ffffffffffffffffffffffffffffffffffffffff1673ffffffffffffffffffffffffffffffffffffffff166108fc839081150290604051600060405180830381858888f19350505050158015610c58573d6000803e3d6000fd5b506040805190810160405280600981526020017f52657365727661646f0000000000000000000000000000000000000000000000815250600760008873ffffffffffffffffffffffffffffffffffffffff1673ffffffffffffffffffffffffffffffffffffffff1681526020019081526020016000206003019080519060200190610ce4929190611bfd565b507f8dcda423957fa311d7e8fa377266bfbc8d7a6be199a18df310e0c24f81df8db087828888888789604051808873ffffffffffffffffffffffffffffffffffffffff1673ffffffffffffffffffffffffffffffffffffffff1681526020018773ffffffffffffffffffffffffffffffffffffffff1673ffffffffffffffffffffffffffffffffffffffff1681526020018673ffffffffffffffffffffffffffffffffffffffff1673ffffffffffffffffffffffffffffffffffffffff1681526020018563ffffffff1663ffffffff1681526020018481526020018381526020018263ffffffff1663ffffffff16815260200197505050505050505060405180910390a15050505050505050565b600080600080600160009054906101000a900473ffffffffffffffffffffffffffffffffffffffff1673ffffffffffffffffffffffffffffffffffffffff163373ffffffffffffffffffffffffffffffffffffffff16141515610e5457600080fd5b600660008673ffffffffffffffffffffffffffffffffffffffff1673ffffffffffffffffffffffffffffffffffffffff16815260200190815260200160002093508360000160009054906101000a900473ffffffffffffffffffffffffffffffffffffffff1692508360010160009054906101000a900473ffffffffffffffffffffffffffffffffffffffff1691508360040154905060028460050160009054906101000a900463ffffffff1663ffffffff161415610f55578273ffffffffffffffffffffffffffffffffffffffff166108fc829081150290604051600060405180830381858888f19350505050158015610f53573d6000803e3d6000fd5b505b60038460050160009054906101000a900463ffffffff1663ffffffff161415610fc0578173ffffffffffffffffffffffffffffffffffffffff166108fc829081150290604051600060405180830381858888f19350505050158015610fbe573d6000803e3d6000fd5b505b5050505050565b600080600080339350600660008773ffffffffffffffffffffffffffffffffffffffff1673ffffffffffffffffffffffffffffffffffffffff16815260200190815260200160002092508260010160009054906101000a900473ffffffffffffffffffffffffffffffffffffffff1673ffffffffffffffffffffffffffffffffffffffff168473ffffffffffffffffffffffffffffffffffffffff1614156110f9578260000160009054906101000a900473ffffffffffffffffffffffffffffffffffffffff1691508260040154905084600660008873ffffffffffffffffffffffffffffffffffffffff1673ffffffffffffffffffffffffffffffffffffffff16815260200190815260200160002060050160006101000a81548163ffffffff021916908363ffffffff1602179055505b505050505050565b6000809054906101000a900473ffffffffffffffffffffffffffffffffffffffff1681565b6060600b60008373ffffffffffffffffffffffffffffffffffffffff1673ffffffffffffffffffffffffffffffffffffffff1681526020019081526020016000208054600181600116156101000203166002900480601f0160208091040260200160405190810160405280929190818152602001828054600181600116156101000203166002900480156111fb5780601f106111d0576101008083540402835291602001916111fb565b820191906000526020600020905b8154815290600101906020018083116111de57829003601f168201915b50505050509050919050565b6000600160009054906101000a900473ffffffffffffffffffffffffffffffffffffffff16905090565b600033905081600a60008373ffffffffffffffffffffffffffffffffffffffff1673ffffffffffffffffffffffffffffffffffffffff1681526020019081526020016000209080519060200190611289929190611bfd565b507f42e5f8b7e25fc750415f37126e2e0b4522bc7e98be7ff4bb19c38d696b1cf6208183604051808373ffffffffffffffffffffffffffffffffffffffff1673ffffffffffffffffffffffffffffffffffffffff16815260200180602001828103825283818151815260200191508051906020019080838360005b8381101561131f578082015181840152602081019050611304565b50505050905090810190601f16801561134c5780820380516001836020036101000a031916815260200191505b50935050505060405180910390a15050565b6060806060806000600760008773ffffffffffffffffffffffffffffffffffffffff1673ffffffffffffffffffffffffffffffffffffffff168152602001908152602001600020905080600001816001018260020183600301838054600181600116156101000203166002900480601f01602080910402602001604051908101604052809291908181526020018280546001816001161561010002031660029004801561144c5780601f106114215761010080835404028352916020019161144c565b820191906000526020600020905b81548152906001019060200180831161142f57829003601f168201915b50505050509350828054600181600116156101000203166002900480601f0160208091040260200160405190810160405280929190818152602001828054600181600116156101000203166002900480156114e85780601f106114bd576101008083540402835291602001916114e8565b820191906000526020600020905b8154815290600101906020018083116114cb57829003601f168201915b50505050509250818054600181600116156101000203166002900480601f0160208091040260200160405190810160405280929190818152602001828054600181600116156101000203166002900480156115845780601f1061155957610100808354040283529160200191611584565b820191906000526020600020905b81548152906001019060200180831161156757829003601f168201915b50505050509150808054600181600116156101000203166002900480601f0160208091040260200160405190810160405280929190818152602001828054600181600116156101000203166002900480156116205780601f106115f557610100808354040283529160200191611620565b820191906000526020600020905b81548152906001019060200180831161160357829003601f168201915b505050505090509450945094509450509193509193565b6060600a60008373ffffffffffffffffffffffffffffffffffffffff1673ffffffffffffffffffffffffffffffffffffffff1681526020019081526020016000208054600181600116156101000203166002900480601f01602080910402602001604051908101604052809291908181526020018280546001816001161561010002031660029004801561170c5780601f106116e15761010080835404028352916020019161170c565b820191906000526020600020905b8154815290600101906020018083116116ef57829003601f168201915b50505050509050919050565b6000809054906101000a900473ffffffffffffffffffffffffffffffffffffffff1673ffffffffffffffffffffffffffffffffffffffff163373ffffffffffffffffffffffffffffffffffffffff1614151561177357600080fd5b600073ffffffffffffffffffffffffffffffffffffffff168173ffffffffffffffffffffffffffffffffffffffff16141515156117af57600080fd5b8073ffffffffffffffffffffffffffffffffffffffff166000809054906101000a900473ffffffffffffffffffffffffffffffffffffffff1673ffffffffffffffffffffffffffffffffffffffff167f8be0079c531659141344cd1fd0a4f28419497f9722a3daafe3b4186f6b6457e060405160405180910390a3806000806101000a81548173ffffffffffffffffffffffffffffffffffffffff021916908373ffffffffffffffffffffffffffffffffffffffff16021790555050565b600033905060806040519081016040528086815260200185815260200184815260200183815250600760008873ffffffffffffffffffffffffffffffffffffffff1673ffffffffffffffffffffffffffffffffffffffff16815260200190815260200160002060008201518160000190805190602001906118ef929190611c7d565b50602082015181600101908051906020019061190c929190611c7d565b506040820151816002019080519060200190611929929190611c7d565b506060820151816003019080519060200190611946929190611c7d565b5090505080600960008873ffffffffffffffffffffffffffffffffffffffff1673ffffffffffffffffffffffffffffffffffffffff16815260200190815260200160002060006101000a81548173ffffffffffffffffffffffffffffffffffffffff021916908373ffffffffffffffffffffffffffffffffffffffff160217905550600860008273ffffffffffffffffffffffffffffffffffffffff1673ffffffffffffffffffffffffffffffffffffffff168152602001908152602001600020600081548092919060010191905055507f0f1ae7f2c6c68874d18c8008e7cd44273a381f16fcd0f78d32fb96569495305e8187868686604051808673ffffffffffffffffffffffffffffffffffffffff1673ffffffffffffffffffffffffffffffffffffffff1681526020018573ffffffffffffffffffffffffffffffffffffffff1673ffffffffffffffffffffffffffffffffffffffff168152602001806020018060200180602001848103845287818151815260200191508051906020019080838360005b83811015611ae9578082015181840152602081019050611ace565b50505050905090810190601f168015611b165780820380516001836020036101000a031916815260200191505b50848103835286818151815260200191508051906020019080838360005b83811015611b4f578082015181840152602081019050611b34565b50505050905090810190601f168015611b7c5780820380516001836020036101000a031916815260200191505b50848103825285818151815260200191508051906020019080838360005b83811015611bb5578082015181840152602081019050611b9a565b50505050905090810190601f168015611be25780820380516001836020036101000a031916815260200191505b509850505050505050505060405180910390a1505050505050565b828054600181600116156101000203166002900490600052602060002090601f016020900481019282601f10611c3e57805160ff1916838001178555611c6c565b82800160010185558215611c6c579182015b82811115611c6b578251825591602001919060010190611c50565b5b509050611c799190611cfd565b5090565b828054600181600116156101000203166002900490600052602060002090601f016020900481019282601f10611cbe57805160ff1916838001178555611cec565b82800160010185558215611cec579182015b82811115611ceb578251825591602001919060010190611cd0565b5b509050611cf99190611cfd565b5090565b611d1f91905b80821115611d1b576000816000905550600101611d03565b5090565b905600a165627a7a72305820d2497395379c9ffaf2534f5c12b90f7b2df744eeb7b7efc093b857adb3a146fc0029",
  "source": "pragma solidity ^0.4.17;\n\nimport \"./Ownable.sol\";\nimport \"./SafeMath.sol\";\n\ncontract ArriendoFactory is Ownable {\n  using SafeMath for uint256;\n\n  event NewPropietario(address _dirPropietario, string _nombrePropietario);\n  event NewArrendador(address _dirArrendador,string _nombreArrendador);\n  event NewInmueble(address _dirPropietario, address _dirInmueble, string _descDireccion, string _descDescripcion, string _descEstado);\n  event NewArriendo(address _dirPropietario,address _dirArrendador,address _dirInmueble,uint32 _tiempoArriendo, uint256 _costoArriendo,uint256 _mtoPagado,uint32 _descEstado);\n\n  address dirOwnerContrato;\n  uint codigoDigits = 16;\n  uint codigoModulus = 10 ** codigoDigits;\n  uint cooldownTime = 1 days;\n  uint costoSearch = 0.002 ether;\n\n\n  struct Arriendo {\n    address dirPropietario;\n    address dirArrendador;\n    address dirInmueble;\n    uint32 readyTime;//fecha de registro de Contrato Arriendo\n    uint32 tiempoArriendo;//fecha de registro de Contrato Arriendo\n    uint256 costoArriendo;\n    uint256 mtoPagado;\n    uint32 descEstado; // 1 = reservado, 2 = arrendado, 3 = rechazado, \n  }\n\n  struct Inmueble {\n    string descTipo;\n    string descDireccion;\n    string descDescripcion;\n    string descEstado;//disponibilidad\n  }\n\n  //Arriendo[] public Arriendos;\n\n  mapping (address => Arriendo) Arriendos;\n  mapping (address => Inmueble) Inmuebles;\n  mapping (address => uint) ownerInmuebleCount;\n  mapping (address => address) ownerInmueble;\n  mapping (address => string) Propietario;\n  mapping (address => string) Arrendador;\n\n  function ArriendoFactory() public{\n    //ownable();\n    dirOwnerContrato = msg.sender;\n    }\n\n  function getOwnerContrato() public  returns (address){\n    return dirOwnerContrato;\n  }\n\n /*****************************/\n /****    PROPIETARIO     *****/\n /*****************************/\n  //function setPropietario(address _dirPropietario,string _nombrePropietario) public {\n  function setPropietario(string _nombrePropietario) public {\n    address _dirPropietario = msg.sender;\n    Propietario[_dirPropietario] = _nombrePropietario;\n    NewPropietario(_dirPropietario,_nombrePropietario);\n  }\n\n  function getPropietario(address _dirPropietario) public returns (string nombrePropietario) {\n    return Propietario[_dirPropietario];\n  }\n\n /*****************************/\n /****    ARRENDADOR      *****/\n /*****************************/\n  //function setArrendador(address _dirArrendador,string _nombreArrendador) public {\n  function setArrendador(string _nombreArrendador) public {\n    address _dirArrendador = msg.sender;\n    Arrendador[_dirArrendador] = _nombreArrendador;\n    NewArrendador(_dirArrendador,_nombreArrendador);\n  }\n\n  function getArrendador(address _dirArrendador) public returns (string _nombreArrendador) {\n    return Arrendador[_dirArrendador];\n  }\n\n /*************************/\n /****    INMUEBLE     ****/\n /*************************/\n  function setInmueble(address _dirInmueble,string _descTipo,string _descDireccion,string _descDescripcion,string _descEstado) public {\n    address _dirPropietario = msg.sender;\n    Inmuebles[_dirInmueble] = Inmueble(_descTipo,_descDireccion,_descDescripcion,_descEstado);\n    ownerInmueble[_dirInmueble] = _dirPropietario;\n    ownerInmuebleCount[_dirPropietario]++;\n    NewInmueble(_dirPropietario,_dirInmueble, _descDireccion, _descDescripcion,_descEstado);\n  }\n\n  function getInmueble(address _dirInmueble) public returns(string _descTipo,string _descDireccion,string _descDescripcion,string _descEstado){\n      Inmueble storage _inmueble = Inmuebles[_dirInmueble];\n        return (_inmueble.descTipo,            \n                _inmueble.descDireccion,\n                _inmueble.descDescripcion,\n                _inmueble.descEstado);\n  }\n\n\n /******************************/\n /****   ENVIAR DEPOSITO   *****/\n /******************************/\n  function _enviarDeposito_Contrato(address hashArriendo, address _dirPropietario,address _dirInmueble,uint32 _tiempoArriendo, uint256 _costoArriendo,uint32 _descEstado)  payable {\n    //require(msg.sender == dirOwnerContrato); \n    uint256 _mtoPagado = msg.value;\n    address _dirArrendador = msg.sender;\n    if (_mtoPagado < _costoArriendo) {\n       revert ();\n    } else {\n\n      Arriendos[hashArriendo] = Arriendo(_dirPropietario,_dirArrendador,_dirInmueble,uint32(now),_tiempoArriendo,_costoArriendo,_mtoPagado,_descEstado);\n      dirOwnerContrato.transfer(_mtoPagado);\n      //dirOwnerContrato.transfer(address(this).balance);\n      //Poner el inmueble a estado reservado\n      Inmuebles[_dirInmueble].descEstado = 'Reservado';\n      NewArriendo(_dirPropietario,_dirArrendador,_dirInmueble,_tiempoArriendo,_costoArriendo,_mtoPagado,_descEstado);\n      \n    }\n  }\n\n /**************************/\n /****   NOTIFICAR    *****/\n /*************************/\n  function _notificarEstadoArriendo(address _hashArriendo, uint32 _descEstado) public {\n    //uint256 mtoPagado_p = msg.value;\n    address _dirArrendador = msg.sender;\n    Arriendo storage _arriendo = Arriendos[_hashArriendo];\n    if (_dirArrendador == _arriendo.dirArrendador) {\n      address _dirPropietario = _arriendo.dirPropietario;\n      uint256 _mtoPagado = _arriendo.mtoPagado;\n      Arriendos[_hashArriendo].descEstado = _descEstado;\n      //dirOwnerContrato.transfer(_mtoPagado); \n    //} else {\n    //   revert ();\n    }\n  }\n\n /*****************************************************************/\n /****   CONTRATO ENVIA DINERO DE ACUERDO A ESTADO ARRIENDO   *****/\n /*****************************************************************/\n  function _contratoEnviaDeposito(address _hashArriendo) payable  {\n    //uint256 mtoPagado_p = msg.value;\n    require(msg.sender == dirOwnerContrato); \n    Arriendo storage _arriendo = Arriendos[_hashArriendo];\n      address _dirPropietario = _arriendo.dirPropietario;\n      address _dirArrendador  = _arriendo.dirArrendador;\n      uint256 _mtoPagado = _arriendo.mtoPagado;\n      if(_arriendo.descEstado == 2 ) { //se paga a Propietario\n          _dirPropietario.transfer(_mtoPagado); \n      }\n      if(_arriendo.descEstado == 3 ) { //se devuelve dinero a Arrendatario\n          _dirArrendador.transfer(_mtoPagado); \n      }\n  }\n\n}\n",
  "sourcePath": "C:\\Users\\Roger Lazo\\Documents\\personal\\arriendos\\contracts\\ArriendoFactory.sol",
  "compiler": {
    "name": "solc",
    "version": "0.4.23+commit.124ca40d.Emscripten.clang"
  },
  "schemaVersion": "2.0.0",
  "updatedAt": "2018-05-09T13:08:03.048Z"
}